{
  "_format": "hh-sol-artifact-1",
  "contractName": "MyNFTCollection",
  "sourceName": "contracts/NFTAtlas.sol",
  "abi": [
    {
      "inputs": [
        {
          "internalType": "string",
          "name": "name",
          "type": "string"
        },
        {
          "internalType": "string",
          "name": "symbol",
          "type": "string"
        },
        {
          "internalType": "string",
          "name": "commonURI",
          "type": "string"
        }
      ],
      "stateMutability": "nonpayable",
      "type": "constructor"
    },
    {
      "inputs": [
        {
          "internalType": "address",
          "name": "sender",
          "type": "address"
        },
        {
          "internalType": "uint256",
          "name": "tokenId",
          "type": "uint256"
        },
        {
          "internalType": "address",
          "name": "owner",
          "type": "address"
        }
      ],
      "name": "ERC721IncorrectOwner",
      "type": "error"
    },
    {
      "inputs": [
        {
          "internalType": "address",
          "name": "operator",
          "type": "address"
        },
        {
          "internalType": "uint256",
          "name": "tokenId",
          "type": "uint256"
        }
      ],
      "name": "ERC721InsufficientApproval",
      "type": "error"
    },
    {
      "inputs": [
        {
          "internalType": "address",
          "name": "approver",
          "type": "address"
        }
      ],
      "name": "ERC721InvalidApprover",
      "type": "error"
    },
    {
      "inputs": [
        {
          "internalType": "address",
          "name": "operator",
          "type": "address"
        }
      ],
      "name": "ERC721InvalidOperator",
      "type": "error"
    },
    {
      "inputs": [
        {
          "internalType": "address",
          "name": "owner",
          "type": "address"
        }
      ],
      "name": "ERC721InvalidOwner",
      "type": "error"
    },
    {
      "inputs": [
        {
          "internalType": "address",
          "name": "receiver",
          "type": "address"
        }
      ],
      "name": "ERC721InvalidReceiver",
      "type": "error"
    },
    {
      "inputs": [
        {
          "internalType": "address",
          "name": "sender",
          "type": "address"
        }
      ],
      "name": "ERC721InvalidSender",
      "type": "error"
    },
    {
      "inputs": [
        {
          "internalType": "uint256",
          "name": "tokenId",
          "type": "uint256"
        }
      ],
      "name": "ERC721NonexistentToken",
      "type": "error"
    },
    {
      "inputs": [
        {
          "internalType": "address",
          "name": "owner",
          "type": "address"
        }
      ],
      "name": "OwnableInvalidOwner",
      "type": "error"
    },
    {
      "inputs": [
        {
          "internalType": "address",
          "name": "account",
          "type": "address"
        }
      ],
      "name": "OwnableUnauthorizedAccount",
      "type": "error"
    },
    {
      "anonymous": false,
      "inputs": [
        {
          "indexed": true,
          "internalType": "address",
          "name": "owner",
          "type": "address"
        },
        {
          "indexed": true,
          "internalType": "address",
          "name": "approved",
          "type": "address"
        },
        {
          "indexed": true,
          "internalType": "uint256",
          "name": "tokenId",
          "type": "uint256"
        }
      ],
      "name": "Approval",
      "type": "event"
    },
    {
      "anonymous": false,
      "inputs": [
        {
          "indexed": true,
          "internalType": "address",
          "name": "owner",
          "type": "address"
        },
        {
          "indexed": true,
          "internalType": "address",
          "name": "operator",
          "type": "address"
        },
        {
          "indexed": false,
          "internalType": "bool",
          "name": "approved",
          "type": "bool"
        }
      ],
      "name": "ApprovalForAll",
      "type": "event"
    },
    {
      "anonymous": false,
      "inputs": [
        {
          "indexed": true,
          "internalType": "address",
          "name": "previousOwner",
          "type": "address"
        },
        {
          "indexed": true,
          "internalType": "address",
          "name": "newOwner",
          "type": "address"
        }
      ],
      "name": "OwnershipTransferred",
      "type": "event"
    },
    {
      "anonymous": false,
      "inputs": [
        {
          "indexed": true,
          "internalType": "address",
          "name": "from",
          "type": "address"
        },
        {
          "indexed": true,
          "internalType": "address",
          "name": "to",
          "type": "address"
        },
        {
          "indexed": true,
          "internalType": "uint256",
          "name": "tokenId",
          "type": "uint256"
        }
      ],
      "name": "Transfer",
      "type": "event"
    },
    {
      "inputs": [
        {
          "internalType": "address",
          "name": "to",
          "type": "address"
        },
        {
          "internalType": "uint256",
          "name": "tokenId",
          "type": "uint256"
        }
      ],
      "name": "approve",
      "outputs": [],
      "stateMutability": "nonpayable",
      "type": "function"
    },
    {
      "inputs": [
        {
          "internalType": "address",
          "name": "owner",
          "type": "address"
        }
      ],
      "name": "balanceOf",
      "outputs": [
        {
          "internalType": "uint256",
          "name": "",
          "type": "uint256"
        }
      ],
      "stateMutability": "view",
      "type": "function"
    },
    {
      "inputs": [
        {
          "internalType": "address[]",
          "name": "recipients",
          "type": "address[]"
        }
      ],
      "name": "batchMint",
      "outputs": [],
      "stateMutability": "nonpayable",
      "type": "function"
    },
    {
      "inputs": [
        {
          "internalType": "uint256",
          "name": "tokenId",
          "type": "uint256"
        }
      ],
      "name": "getApproved",
      "outputs": [
        {
          "internalType": "address",
          "name": "",
          "type": "address"
        }
      ],
      "stateMutability": "view",
      "type": "function"
    },
    {
      "inputs": [
        {
          "internalType": "address",
          "name": "owner",
          "type": "address"
        },
        {
          "internalType": "address",
          "name": "operator",
          "type": "address"
        }
      ],
      "name": "isApprovedForAll",
      "outputs": [
        {
          "internalType": "bool",
          "name": "",
          "type": "bool"
        }
      ],
      "stateMutability": "view",
      "type": "function"
    },
    {
      "inputs": [],
      "name": "name",
      "outputs": [
        {
          "internalType": "string",
          "name": "",
          "type": "string"
        }
      ],
      "stateMutability": "view",
      "type": "function"
    },
    {
      "inputs": [],
      "name": "owner",
      "outputs": [
        {
          "internalType": "address",
          "name": "",
          "type": "address"
        }
      ],
      "stateMutability": "view",
      "type": "function"
    },
    {
      "inputs": [
        {
          "internalType": "uint256",
          "name": "tokenId",
          "type": "uint256"
        }
      ],
      "name": "ownerOf",
      "outputs": [
        {
          "internalType": "address",
          "name": "",
          "type": "address"
        }
      ],
      "stateMutability": "view",
      "type": "function"
    },
    {
      "inputs": [],
      "name": "renounceOwnership",
      "outputs": [],
      "stateMutability": "nonpayable",
      "type": "function"
    },
    {
      "inputs": [
        {
          "internalType": "address",
          "name": "from",
          "type": "address"
        },
        {
          "internalType": "address",
          "name": "to",
          "type": "address"
        },
        {
          "internalType": "uint256",
          "name": "tokenId",
          "type": "uint256"
        }
      ],
      "name": "safeTransferFrom",
      "outputs": [],
      "stateMutability": "nonpayable",
      "type": "function"
    },
    {
      "inputs": [
        {
          "internalType": "address",
          "name": "from",
          "type": "address"
        },
        {
          "internalType": "address",
          "name": "to",
          "type": "address"
        },
        {
          "internalType": "uint256",
          "name": "tokenId",
          "type": "uint256"
        },
        {
          "internalType": "bytes",
          "name": "data",
          "type": "bytes"
        }
      ],
      "name": "safeTransferFrom",
      "outputs": [],
      "stateMutability": "nonpayable",
      "type": "function"
    },
    {
      "inputs": [
        {
          "internalType": "address",
          "name": "operator",
          "type": "address"
        },
        {
          "internalType": "bool",
          "name": "approved",
          "type": "bool"
        }
      ],
      "name": "setApprovalForAll",
      "outputs": [],
      "stateMutability": "nonpayable",
      "type": "function"
    },
    {
      "inputs": [
        {
          "internalType": "string",
          "name": "newURI",
          "type": "string"
        }
      ],
      "name": "setCommonURI",
      "outputs": [],
      "stateMutability": "nonpayable",
      "type": "function"
    },
    {
      "inputs": [
        {
          "internalType": "bytes4",
          "name": "interfaceId",
          "type": "bytes4"
        }
      ],
      "name": "supportsInterface",
      "outputs": [
        {
          "internalType": "bool",
          "name": "",
          "type": "bool"
        }
      ],
      "stateMutability": "view",
      "type": "function"
    },
    {
      "inputs": [],
      "name": "symbol",
      "outputs": [
        {
          "internalType": "string",
          "name": "",
          "type": "string"
        }
      ],
      "stateMutability": "view",
      "type": "function"
    },
    {
      "inputs": [
        {
          "internalType": "uint256",
          "name": "tokenId",
          "type": "uint256"
        }
      ],
      "name": "tokenURI",
      "outputs": [
        {
          "internalType": "string",
          "name": "",
          "type": "string"
        }
      ],
      "stateMutability": "view",
      "type": "function"
    },
    {
      "inputs": [],
      "name": "totalSupply",
      "outputs": [
        {
          "internalType": "uint256",
          "name": "",
          "type": "uint256"
        }
      ],
      "stateMutability": "view",
      "type": "function"
    },
    {
      "inputs": [
        {
          "internalType": "address",
          "name": "from",
          "type": "address"
        },
        {
          "internalType": "address",
          "name": "to",
          "type": "address"
        },
        {
          "internalType": "uint256",
          "name": "tokenId",
          "type": "uint256"
        }
      ],
      "name": "transferFrom",
      "outputs": [],
      "stateMutability": "nonpayable",
      "type": "function"
    },
    {
      "inputs": [
        {
          "internalType": "address",
          "name": "newOwner",
          "type": "address"
        }
      ],
      "name": "transferOwnership",
      "outputs": [],
      "stateMutability": "nonpayable",
      "type": "function"
    }
  ],
  "bytecode": "0x60806040523480156200001157600080fd5b5060405162002c4638038062002c46833981810160405281019062000037919062000363565b33838381600090816200004b919062000667565b5080600190816200005d919062000667565b505050600073ffffffffffffffffffffffffffffffffffffffff168173ffffffffffffffffffffffffffffffffffffffff1603620000d55760006040517f1e4fbdf7000000000000000000000000000000000000000000000000000000008152600401620000cc919062000793565b60405180910390fd5b620000e6816200010a60201b60201c565b508060079081620000f8919062000667565b506000600881905550505050620007b0565b6000600660009054906101000a900473ffffffffffffffffffffffffffffffffffffffff16905081600660006101000a81548173ffffffffffffffffffffffffffffffffffffffff021916908373ffffffffffffffffffffffffffffffffffffffff1602179055508173ffffffffffffffffffffffffffffffffffffffff168173ffffffffffffffffffffffffffffffffffffffff167f8be0079c531659141344cd1fd0a4f28419497f9722a3daafe3b4186f6b6457e060405160405180910390a35050565b6000604051905090565b600080fd5b600080fd5b600080fd5b600080fd5b6000601f19601f8301169050919050565b7f4e487b7100000000000000000000000000000000000000000000000000000000600052604160045260246000fd5b6200023982620001ee565b810181811067ffffffffffffffff821117156200025b576200025a620001ff565b5b80604052505050565b600062000270620001d0565b90506200027e82826200022e565b919050565b600067ffffffffffffffff821115620002a157620002a0620001ff565b5b620002ac82620001ee565b9050602081019050919050565b60005b83811015620002d9578082015181840152602081019050620002bc565b60008484015250505050565b6000620002fc620002f68462000283565b62000264565b9050828152602081018484840111156200031b576200031a620001e9565b5b62000328848285620002b9565b509392505050565b600082601f830112620003485762000347620001e4565b5b81516200035a848260208601620002e5565b91505092915050565b6000806000606084860312156200037f576200037e620001da565b5b600084015167ffffffffffffffff811115620003a0576200039f620001df565b5b620003ae8682870162000330565b935050602084015167ffffffffffffffff811115620003d257620003d1620001df565b5b620003e08682870162000330565b925050604084015167ffffffffffffffff811115620004045762000403620001df565b5b620004128682870162000330565b9150509250925092565b600081519050919050565b7f4e487b7100000000000000000000000000000000000000000000000000000000600052602260045260246000fd5b600060028204905060018216806200046f57607f821691505b60208210810362000485576200048462000427565b5b50919050565b60008190508160005260206000209050919050565b60006020601f8301049050919050565b600082821b905092915050565b600060088302620004ef7fffffffffffffffffffffffffffffffffffffffffffffffffffffffffffffffff82620004b0565b620004fb8683620004b0565b95508019841693508086168417925050509392505050565b6000819050919050565b6000819050919050565b600062000548620005426200053c8462000513565b6200051d565b62000513565b9050919050565b6000819050919050565b620005648362000527565b6200057c62000573826200054f565b848454620004bd565b825550505050565b600090565b6200059362000584565b620005a081848462000559565b505050565b5b81811015620005c857620005bc60008262000589565b600181019050620005a6565b5050565b601f8211156200061757620005e1816200048b565b620005ec84620004a0565b81016020851015620005fc578190505b620006146200060b85620004a0565b830182620005a5565b50505b505050565b600082821c905092915050565b60006200063c600019846008026200061c565b1980831691505092915050565b600062000657838362000629565b9150826002028217905092915050565b62000672826200041c565b67ffffffffffffffff8111156200068e576200068d620001ff565b5b6200069a825462000456565b620006a7828285620005cc565b600060209050601f831160018114620006df5760008415620006ca578287015190505b620006d6858262000649565b86555062000746565b601f198416620006ef866200048b565b60005b828110156200071957848901518255600182019150602085019450602081019050620006f2565b8683101562000739578489015162000735601f89168262000629565b8355505b6001600288020188555050505b505050505050565b600073ffffffffffffffffffffffffffffffffffffffff82169050919050565b60006200077b826200074e565b9050919050565b6200078d816200076e565b82525050565b6000602082019050620007aa600083018462000782565b92915050565b61248680620007c06000396000f3fe608060405234801561001057600080fd5b50600436106101215760003560e01c806370a08231116100ad578063b88d4fde11610071578063b88d4fde146102f4578063c87b56dd14610310578063d67b06c114610340578063e985e9c51461035c578063f2fde38b1461038c57610121565b806370a0823114610262578063715018a6146102925780638da5cb5b1461029c57806395d89b41146102ba578063a22cb465146102d857610121565b806318160ddd116100f457806318160ddd146101c057806323b872dd146101de57806342842e0e146101fa57806355fc9893146102165780636352211e1461023257610121565b806301ffc9a71461012657806306fdde0314610156578063081812fc14610174578063095ea7b3146101a4575b600080fd5b610140600480360381019061013b91906117ae565b6103a8565b60405161014d91906117f6565b60405180910390f35b61015e61048a565b60405161016b91906118a1565b60405180910390f35b61018e600480360381019061018991906118f9565b61051c565b60405161019b9190611967565b60405180910390f35b6101be60048036038101906101b991906119ae565b610538565b005b6101c861054e565b6040516101d591906119fd565b60405180910390f35b6101f860048036038101906101f39190611a18565b610558565b005b610214600480360381019061020f9190611a18565b61065a565b005b610230600480360381019061022b9190611ba0565b61067a565b005b61024c600480360381019061024791906118f9565b610695565b6040516102599190611967565b60405180910390f35b61027c60048036038101906102779190611be9565b6106a7565b60405161028991906119fd565b60405180910390f35b61029a610761565b005b6102a4610775565b6040516102b19190611967565b60405180910390f35b6102c261079f565b6040516102cf91906118a1565b60405180910390f35b6102f260048036038101906102ed9190611c42565b610831565b005b61030e60048036038101906103099190611d23565b610847565b005b61032a600480360381019061032591906118f9565b610864565b60405161033791906118a1565b60405180910390f35b61035a60048036038101906103559190611e6e565b61096f565b005b61037660048036038101906103719190611eb7565b6109d2565b60405161038391906117f6565b60405180910390f35b6103a660048036038101906103a19190611be9565b610a66565b005b60007f80ac58cd000000000000000000000000000000000000000000000000000000007bffffffffffffffffffffffffffffffffffffffffffffffffffffffff1916827bffffffffffffffffffffffffffffffffffffffffffffffffffffffff1916148061047357507f5b5e139f000000000000000000000000000000000000000000000000000000007bffffffffffffffffffffffffffffffffffffffffffffffffffffffff1916827bffffffffffffffffffffffffffffffffffffffffffffffffffffffff1916145b80610483575061048282610aec565b5b9050919050565b60606000805461049990611f26565b80601f01602080910402602001604051908101604052809291908181526020018280546104c590611f26565b80156105125780601f106104e757610100808354040283529160200191610512565b820191906000526020600020905b8154815290600101906020018083116104f557829003601f168201915b5050505050905090565b600061052782610b56565b5061053182610bde565b9050919050565b61054a8282610545610c1b565b610c23565b5050565b6000600854905090565b600073ffffffffffffffffffffffffffffffffffffffff168273ffffffffffffffffffffffffffffffffffffffff16036105ca5760006040517f64a0ae920000000000000000000000000000000000000000000000000000000081526004016105c19190611967565b60405180910390fd5b60006105de83836105d9610c1b565b610c35565b90508373ffffffffffffffffffffffffffffffffffffffff168173ffffffffffffffffffffffffffffffffffffffff1614610654578382826040517f64283d7b00000000000000000000000000000000000000000000000000000000815260040161064b93929190611f57565b60405180910390fd5b50505050565b61067583838360405180602001604052806000815250610847565b505050565b610682610e4f565b8060079081610691919061213a565b5050565b60006106a082610b56565b9050919050565b60008073ffffffffffffffffffffffffffffffffffffffff168273ffffffffffffffffffffffffffffffffffffffff160361071a5760006040517f89c62b640000000000000000000000000000000000000000000000000000000081526004016107119190611967565b60405180910390fd5b600360008373ffffffffffffffffffffffffffffffffffffffff1673ffffffffffffffffffffffffffffffffffffffff168152602001908152602001600020549050919050565b610769610e4f565b6107736000610ed6565b565b6000600660009054906101000a900473ffffffffffffffffffffffffffffffffffffffff16905090565b6060600180546107ae90611f26565b80601f01602080910402602001604051908101604052809291908181526020018280546107da90611f26565b80156108275780601f106107fc57610100808354040283529160200191610827565b820191906000526020600020905b81548152906001019060200180831161080a57829003601f168201915b5050505050905090565b61084361083c610c1b565b8383610f9c565b5050565b610852848484610558565b61085e8484848461110b565b50505050565b6060600073ffffffffffffffffffffffffffffffffffffffff1661088783610695565b73ffffffffffffffffffffffffffffffffffffffff16036108dd576040517f08c379a00000000000000000000000000000000000000000000000000000000081526004016108d49061227e565b60405180910390fd5b600780546108ea90611f26565b80601f016020809104026020016040519081016040528092919081815260200182805461091690611f26565b80156109635780601f1061093857610100808354040283529160200191610963565b820191906000526020600020905b81548152906001019060200180831161094657829003601f168201915b50505050509050919050565b610977610e4f565b60005b81518110156109ce5760086000815480929190610996906122cd565b91905055506109c18282815181106109b1576109b0612315565b5b60200260200101516008546112c2565b808060010191505061097a565b5050565b6000600560008473ffffffffffffffffffffffffffffffffffffffff1673ffffffffffffffffffffffffffffffffffffffff16815260200190815260200160002060008373ffffffffffffffffffffffffffffffffffffffff1673ffffffffffffffffffffffffffffffffffffffff16815260200190815260200160002060009054906101000a900460ff16905092915050565b610a6e610e4f565b600073ffffffffffffffffffffffffffffffffffffffff168173ffffffffffffffffffffffffffffffffffffffff1603610ae05760006040517f1e4fbdf7000000000000000000000000000000000000000000000000000000008152600401610ad79190611967565b60405180910390fd5b610ae981610ed6565b50565b60007f01ffc9a7000000000000000000000000000000000000000000000000000000007bffffffffffffffffffffffffffffffffffffffffffffffffffffffff1916827bffffffffffffffffffffffffffffffffffffffffffffffffffffffff1916149050919050565b600080610b62836113bb565b9050600073ffffffffffffffffffffffffffffffffffffffff168173ffffffffffffffffffffffffffffffffffffffff1603610bd557826040517f7e273289000000000000000000000000000000000000000000000000000000008152600401610bcc91906119fd565b60405180910390fd5b80915050919050565b60006004600083815260200190815260200160002060009054906101000a900473ffffffffffffffffffffffffffffffffffffffff169050919050565b600033905090565b610c3083838360016113f8565b505050565b600080610c41846113bb565b9050600073ffffffffffffffffffffffffffffffffffffffff168373ffffffffffffffffffffffffffffffffffffffff1614610c8357610c828184866115bd565b5b600073ffffffffffffffffffffffffffffffffffffffff168173ffffffffffffffffffffffffffffffffffffffff1614610d1457610cc56000856000806113f8565b6001600360008373ffffffffffffffffffffffffffffffffffffffff1673ffffffffffffffffffffffffffffffffffffffff168152602001908152602001600020600082825403925050819055505b600073ffffffffffffffffffffffffffffffffffffffff168573ffffffffffffffffffffffffffffffffffffffff1614610d97576001600360008773ffffffffffffffffffffffffffffffffffffffff1673ffffffffffffffffffffffffffffffffffffffff168152602001908152602001600020600082825401925050819055505b846002600086815260200190815260200160002060006101000a81548173ffffffffffffffffffffffffffffffffffffffff021916908373ffffffffffffffffffffffffffffffffffffffff160217905550838573ffffffffffffffffffffffffffffffffffffffff168273ffffffffffffffffffffffffffffffffffffffff167fddf252ad1be2c89b69c2b068fc378daa952ba7f163c4a11628f55a4df523b3ef60405160405180910390a4809150509392505050565b610e57610c1b565b73ffffffffffffffffffffffffffffffffffffffff16610e75610775565b73ffffffffffffffffffffffffffffffffffffffff1614610ed457610e98610c1b565b6040517f118cdaa7000000000000000000000000000000000000000000000000000000008152600401610ecb9190611967565b60405180910390fd5b565b6000600660009054906101000a900473ffffffffffffffffffffffffffffffffffffffff16905081600660006101000a81548173ffffffffffffffffffffffffffffffffffffffff021916908373ffffffffffffffffffffffffffffffffffffffff1602179055508173ffffffffffffffffffffffffffffffffffffffff168173ffffffffffffffffffffffffffffffffffffffff167f8be0079c531659141344cd1fd0a4f28419497f9722a3daafe3b4186f6b6457e060405160405180910390a35050565b600073ffffffffffffffffffffffffffffffffffffffff168273ffffffffffffffffffffffffffffffffffffffff160361100d57816040517f5b08ba180000000000000000000000000000000000000000000000000000000081526004016110049190611967565b60405180910390fd5b80600560008573ffffffffffffffffffffffffffffffffffffffff1673ffffffffffffffffffffffffffffffffffffffff16815260200190815260200160002060008473ffffffffffffffffffffffffffffffffffffffff1673ffffffffffffffffffffffffffffffffffffffff16815260200190815260200160002060006101000a81548160ff0219169083151502179055508173ffffffffffffffffffffffffffffffffffffffff168373ffffffffffffffffffffffffffffffffffffffff167f17307eab39ab6107e8899845ad3d59bd9653f200f220920489ca2b5937696c31836040516110fe91906117f6565b60405180910390a3505050565b60008373ffffffffffffffffffffffffffffffffffffffff163b11156112bc578273ffffffffffffffffffffffffffffffffffffffff1663150b7a0261114f610c1b565b8685856040518563ffffffff1660e01b81526004016111719493929190612399565b6020604051808303816000875af19250505080156111ad57506040513d601f19601f820116820180604052508101906111aa91906123fa565b60015b611231573d80600081146111dd576040519150601f19603f3d011682016040523d82523d6000602084013e6111e2565b606091505b50600081510361122957836040517f64a0ae920000000000000000000000000000000000000000000000000000000081526004016112209190611967565b60405180910390fd5b805181602001fd5b63150b7a0260e01b7bffffffffffffffffffffffffffffffffffffffffffffffffffffffff1916817bffffffffffffffffffffffffffffffffffffffffffffffffffffffff1916146112ba57836040517f64a0ae920000000000000000000000000000000000000000000000000000000081526004016112b19190611967565b60405180910390fd5b505b50505050565b600073ffffffffffffffffffffffffffffffffffffffff168273ffffffffffffffffffffffffffffffffffffffff16036113345760006040517f64a0ae9200000000000000000000000000000000000000000000000000000000815260040161132b9190611967565b60405180910390fd5b600061134283836000610c35565b9050600073ffffffffffffffffffffffffffffffffffffffff168173ffffffffffffffffffffffffffffffffffffffff16146113b65760006040517f73c6ac6e0000000000000000000000000000000000000000000000000000000081526004016113ad9190611967565b60405180910390fd5b505050565b60006002600083815260200190815260200160002060009054906101000a900473ffffffffffffffffffffffffffffffffffffffff169050919050565b80806114315750600073ffffffffffffffffffffffffffffffffffffffff168273ffffffffffffffffffffffffffffffffffffffff1614155b1561156557600061144184610b56565b9050600073ffffffffffffffffffffffffffffffffffffffff168373ffffffffffffffffffffffffffffffffffffffff16141580156114ac57508273ffffffffffffffffffffffffffffffffffffffff168173ffffffffffffffffffffffffffffffffffffffff1614155b80156114bf57506114bd81846109d2565b155b1561150157826040517fa9fbf51f0000000000000000000000000000000000000000000000000000000081526004016114f89190611967565b60405180910390fd5b811561156357838573ffffffffffffffffffffffffffffffffffffffff168273ffffffffffffffffffffffffffffffffffffffff167f8c5be1e5ebec7d5bd14f71427d1e84f3dd0314c0f7b2291e5b200ac8c7c3b92560405160405180910390a45b505b836004600085815260200190815260200160002060006101000a81548173ffffffffffffffffffffffffffffffffffffffff021916908373ffffffffffffffffffffffffffffffffffffffff16021790555050505050565b6115c8838383611681565b61167c57600073ffffffffffffffffffffffffffffffffffffffff168373ffffffffffffffffffffffffffffffffffffffff160361163d57806040517f7e27328900000000000000000000000000000000000000000000000000000000815260040161163491906119fd565b60405180910390fd5b81816040517f177e802f000000000000000000000000000000000000000000000000000000008152600401611673929190612427565b60405180910390fd5b505050565b60008073ffffffffffffffffffffffffffffffffffffffff168373ffffffffffffffffffffffffffffffffffffffff161415801561173957508273ffffffffffffffffffffffffffffffffffffffff168473ffffffffffffffffffffffffffffffffffffffff1614806116fa57506116f984846109d2565b5b8061173857508273ffffffffffffffffffffffffffffffffffffffff1661172083610bde565b73ffffffffffffffffffffffffffffffffffffffff16145b5b90509392505050565b6000604051905090565b600080fd5b600080fd5b60007fffffffff0000000000000000000000000000000000000000000000000000000082169050919050565b61178b81611756565b811461179657600080fd5b50565b6000813590506117a881611782565b92915050565b6000602082840312156117c4576117c361174c565b5b60006117d284828501611799565b91505092915050565b60008115159050919050565b6117f0816117db565b82525050565b600060208201905061180b60008301846117e7565b92915050565b600081519050919050565b600082825260208201905092915050565b60005b8381101561184b578082015181840152602081019050611830565b60008484015250505050565b6000601f19601f8301169050919050565b600061187382611811565b61187d818561181c565b935061188d81856020860161182d565b61189681611857565b840191505092915050565b600060208201905081810360008301526118bb8184611868565b905092915050565b6000819050919050565b6118d6816118c3565b81146118e157600080fd5b50565b6000813590506118f3816118cd565b92915050565b60006020828403121561190f5761190e61174c565b5b600061191d848285016118e4565b91505092915050565b600073ffffffffffffffffffffffffffffffffffffffff82169050919050565b600061195182611926565b9050919050565b61196181611946565b82525050565b600060208201905061197c6000830184611958565b92915050565b61198b81611946565b811461199657600080fd5b50565b6000813590506119a881611982565b92915050565b600080604083850312156119c5576119c461174c565b5b60006119d385828601611999565b92505060206119e4858286016118e4565b9150509250929050565b6119f7816118c3565b82525050565b6000602082019050611a1260008301846119ee565b92915050565b600080600060608486031215611a3157611a3061174c565b5b6000611a3f86828701611999565b9350506020611a5086828701611999565b9250506040611a61868287016118e4565b9150509250925092565b600080fd5b600080fd5b7f4e487b7100000000000000000000000000000000000000000000000000000000600052604160045260246000fd5b611aad82611857565b810181811067ffffffffffffffff82111715611acc57611acb611a75565b5b80604052505050565b6000611adf611742565b9050611aeb8282611aa4565b919050565b600067ffffffffffffffff821115611b0b57611b0a611a75565b5b611b1482611857565b9050602081019050919050565b82818337600083830152505050565b6000611b43611b3e84611af0565b611ad5565b905082815260208101848484011115611b5f57611b5e611a70565b5b611b6a848285611b21565b509392505050565b600082601f830112611b8757611b86611a6b565b5b8135611b97848260208601611b30565b91505092915050565b600060208284031215611bb657611bb561174c565b5b600082013567ffffffffffffffff811115611bd457611bd3611751565b5b611be084828501611b72565b91505092915050565b600060208284031215611bff57611bfe61174c565b5b6000611c0d84828501611999565b91505092915050565b611c1f816117db565b8114611c2a57600080fd5b50565b600081359050611c3c81611c16565b92915050565b60008060408385031215611c5957611c5861174c565b5b6000611c6785828601611999565b9250506020611c7885828601611c2d565b9150509250929050565b600067ffffffffffffffff821115611c9d57611c9c611a75565b5b611ca682611857565b9050602081019050919050565b6000611cc6611cc184611c82565b611ad5565b905082815260208101848484011115611ce257611ce1611a70565b5b611ced848285611b21565b509392505050565b600082601f830112611d0a57611d09611a6b565b5b8135611d1a848260208601611cb3565b91505092915050565b60008060008060808587031215611d3d57611d3c61174c565b5b6000611d4b87828801611999565b9450506020611d5c87828801611999565b9350506040611d6d878288016118e4565b925050606085013567ffffffffffffffff811115611d8e57611d8d611751565b5b611d9a87828801611cf5565b91505092959194509250565b600067ffffffffffffffff821115611dc157611dc0611a75565b5b602082029050602081019050919050565b600080fd5b6000611dea611de584611da6565b611ad5565b90508083825260208201905060208402830185811115611e0d57611e0c611dd2565b5b835b81811015611e365780611e228882611999565b845260208401935050602081019050611e0f565b5050509392505050565b600082601f830112611e5557611e54611a6b565b5b8135611e65848260208601611dd7565b91505092915050565b600060208284031215611e8457611e8361174c565b5b600082013567ffffffffffffffff811115611ea257611ea1611751565b5b611eae84828501611e40565b91505092915050565b60008060408385031215611ece57611ecd61174c565b5b6000611edc85828601611999565b9250506020611eed85828601611999565b9150509250929050565b7f4e487b7100000000000000000000000000000000000000000000000000000000600052602260045260246000fd5b60006002820490506001821680611f3e57607f821691505b602082108103611f5157611f50611ef7565b5b50919050565b6000606082019050611f6c6000830186611958565b611f7960208301856119ee565b611f866040830184611958565b949350505050565b60008190508160005260206000209050919050565b60006020601f8301049050919050565b600082821b905092915050565b600060088302611ff07fffffffffffffffffffffffffffffffffffffffffffffffffffffffffffffffff82611fb3565b611ffa8683611fb3565b95508019841693508086168417925050509392505050565b6000819050919050565b600061203761203261202d846118c3565b612012565b6118c3565b9050919050565b6000819050919050565b6120518361201c565b61206561205d8261203e565b848454611fc0565b825550505050565b600090565b61207a61206d565b612085818484612048565b505050565b5b818110156120a95761209e600082612072565b60018101905061208b565b5050565b601f8211156120ee576120bf81611f8e565b6120c884611fa3565b810160208510156120d7578190505b6120eb6120e385611fa3565b83018261208a565b50505b505050565b600082821c905092915050565b6000612111600019846008026120f3565b1980831691505092915050565b600061212a8383612100565b9150826002028217905092915050565b61214382611811565b67ffffffffffffffff81111561215c5761215b611a75565b5b6121668254611f26565b6121718282856120ad565b600060209050601f8311600181146121a45760008415612192578287015190505b61219c858261211e565b865550612204565b601f1984166121b286611f8e565b60005b828110156121da578489015182556001820191506020850194506020810190506121b5565b868310156121f757848901516121f3601f891682612100565b8355505b6001600288020188555050505b505050505050565b7f4552433732314d657461646174613a2055524920717565727920666f72206e6f60008201527f6e6578697374656e7420746f6b656e0000000000000000000000000000000000602082015250565b6000612268602f8361181c565b91506122738261220c565b604082019050919050565b600060208201905081810360008301526122978161225b565b9050919050565b7f4e487b7100000000000000000000000000000000000000000000000000000000600052601160045260246000fd5b60006122d8826118c3565b91507fffffffffffffffffffffffffffffffffffffffffffffffffffffffffffffffff820361230a5761230961229e565b5b600182019050919050565b7f4e487b7100000000000000000000000000000000000000000000000000000000600052603260045260246000fd5b600081519050919050565b600082825260208201905092915050565b600061236b82612344565b612375818561234f565b935061238581856020860161182d565b61238e81611857565b840191505092915050565b60006080820190506123ae6000830187611958565b6123bb6020830186611958565b6123c860408301856119ee565b81810360608301526123da8184612360565b905095945050505050565b6000815190506123f481611782565b92915050565b6000602082840312156124105761240f61174c565b5b600061241e848285016123e5565b91505092915050565b600060408201905061243c6000830185611958565b61244960208301846119ee565b939250505056fea2646970667358221220ab9c770fe12ca9ee8ddcf9ffef6becf0572048a83d85bbfe3fc617c89b32ae2664736f6c63430008180033",
  "linkReferences": {},
  "deployedLinkReferences": {}
}